:030000000210C625
:0C10C600787FE4F6D8FD75816302110DFF
:081233001211F1120F3580FBCE
:10119600C2A18F807F027E001211A7D2A07F037E9C
:0111A6000048
:1011A700D3EF9400EE940040147D7B7C00ED1D701E
:0D11B700011CED4C70F7EF1F70E61E80E389
:0111C4002208
:1011F100C2A6C2A7C2A07F3812123B7F0C12123BBB
:0F1201007F0612123B7F8012123B7F0102123BCD
:08123B00C2A2121196C2A0220A
:08124300D2A2121196C2A022F2
:101210007580FFC2A01211A3D2A2D2A1D2A0AF802A
:02122000C2A06A
:0112220022A9
:10122300300000000000000000000000000000008B
:1011C50010543A000000000000000000000000007C
:1011D5000000044500000000044900000000044D23
:0B11E500000000000151000252000059
:100F350075B00FE5B0640F700302102B7F0A7E00B9
:100F45001211A7E5B0640F700302102B75B0F0AF56
:100F5500B0EF2490601F24C0601424E0600C24F0DE
:100F650070197521FF7522FE801174FF8001E4F56B
:100F750021F52280067521FF7522FB75B00FAFB0F4
:100F8500EF24F9601324FC600B24FE600314801326
:100F9500740380067406800274092522F522E4355F
:100FA50021F52175B0FEAFB0EF2482602324C06027
:100FB5001724E0600B24F0701DE4F521F52280165E
:100FC5007521FF7522FE800E75210075220D8006A4
:100FD5007521FF7522FB75B07FAFB0EF24896023C3
:100FE50024FC601724FE600B14701E7521FF75220A
:100FF500FB80167521FF7522FD800E7521FF752278
:10100500FA800674FFF521F52275B0F0E5B0B4F06D
:10101500FBE5222430FF1212437B007A007954AF9E
:0610250022AE21120BAC0B
:01102B0022A2
:0A0BAC008E238F248B258A268927CB
:100BB600C3E52364809480500AE524B4FE22E5232D
:100BC600B4FF1DE524640D452360150551E5242475
:100BD60030AB25AA26A927855182758300120554B4
:100BE600E524640D4523707B12072A8F4C8E4B8DAE
:100BF6004A8C49E55364014552700EAB48AA47A991
:100C060046A84512000A120993E55364024552703C
:100C160016AB4CAA4BA94AA849AF48AE47AD46AC5D
:100C260045120006120993E553640345527016AF48
:100C36004CAE4BAD4AAC49AB48AA47A946A84512AB
:100C460000FB120993E553640445527016AB4CAA97
:100C56004BA94AA849AF48AE47AD46AC4512020477
:100C6600120993D3E52494FFE5236480947F5072A0
:100C7600C3E52494FAE5236480947F4065E5246403
:100C8600FE7003E523F4605A12072A8F488E478DBB
:100C9600468C45E4F5517F01AB25AA26A9278F820C
:100CA600758300E41205540FBF0EEDE5248523F08D
:100CB6001205DA0CDBFFFA0CCDFFFB0CD4FFFD0CA2
:100CC600E2FFFF00000CE8755200755301227552D1
:100CD6000075530222755200755303227552007532
:020CE6005304B5
:010CE80022E9
:080993008F508E4F8D4E8C4DEC
:08099B008F2B8E2A8D298C2878
:1009A300E4F52FF52EF52DF52CF533F532F531F56C
:1009B3003078347C00FD7BFF7A127923FE7F10129E
:1009C3000515AF2BAE2AAD29AC287BBD7A377986C6
:1009D300783512000A8F2B8E2A8D298C281202DF7C
:1009E3008F2F8E2E8D2D8C2CEC1202A1A804A9051D
:1009F300AA06AB07AF2BAE2AAD29AC281200068F8F
:100A0300338E328D318C30E47B107A27F9F8AF2F97
:100A1300AE2EAD2DAC2C121152EF2430F534E47B05
:100A2300107A27F9F8AF2FAE2EAD2DAC2C12115240
:100A3300AC00AD01AE02AF03E47BE87A03F9F81230
:100A43001152EF2430F535E47BE87A03F9F8AF2F40
:100A5300AE2EAD2DAC2C121152AC00AD01AE02AFD7
:100A630003E47B64FAF9F8121152EF2430F536E40B
:100A73007B64FAF9F8AF2FAE2EAD2DAC2C121152C8
:100A8300AC00AD01AE02AF03E47B0AFAF9F8121130
:100A930052EF2430F537E47B0AFAF9F8AF2FAE2E84
:100AA300AD2DAC2C121152EB2430F53875392EAF25
:100AB30033AE32AD31AC307B007A40791C784612CC
:100AC30000FB8F338E328D318C301202DFAB07AADD
:100AD300067C037DE8120576EF2430F53A7C037D2E
:100AE300E8AF03AE021205767E007F64CFCDCFCE92
:100AF300CCCE120576EF2430F53BAF33AE32AD31B9
:100B0300AC301202DFAB07AA067C007D64120576C7
:100B13007E007F0ACFCDCFCECCCE120576EF243028
:100B2300F53C7C007D0AAF03AE02120576ED24305E
:100B3300F53DE4F54474342544F8E6B4300DE5445A
:100B4300C394045006E4F6054480EA7544097434FA
:100B53002544F8E6B4300DE544C394004006E4F6BA
:100B6300154480EA7FC012123BE4F54474342544F3
:100B7300F8E6FF60031212430544E544D3940440AE
:100B8300EBAF33AE32AD31AC301202DFEF4E601853
:100B930075440574342544F8E6FF600312124305D7
:080BA30044E544D3940940EB42
:010BAB002227
:06072A00AB25AA26A92759
:060730008B288A29892AAA
:10073600E4F52EF52DF52CF52BAB28AA29A92A12BE
:10074600053BFFC394304013EFD3943A500D740128
:10075600252AF52AE43529F52980DEEF600302080B
:100766000F74FF252AF52A74FF3529F529E4F52F9C
:10077600F530AB28AA29A92A12053BFFC3943050AD
:100786000302098AEFD39439400302098AAB2EAAE1
:100796002DA92CA82BC000C001C002C003AC2FADF0
:1007A60030EC1202A68F388E378D368C357F007E60
:1007B600007D207C41120E1EC004C005C006C00785
:1007C600AB28AA29A92A12053B24D0FDE434FFFC54
:1007D600E41202A6D003D002D001D0001200FBD052
:1007E60003D002D001D00012000A8F2E8E2D8D2C40
:1007F6008C2B74FF252AF52A74FF3529F529053037
:10080600E5307002052F020778AB28AA29A92A121B
:10081600053B642E600302099274FF252AF52A74AB
:10082600FF3529F529E4F52FF530AB28AA29A92AA1
:1008360012053BFFC3943050030208C4EFD394392A
:10084600507CAB2EAA2DA92CA82BC000C001C0023B
:10085600C003AC2FAD30EC1202A68F388E378D3622
:100866008C357F007E007D207C41120E1EC004C0A8
:1008760005C006C007AB28AA29A92A12053B24D021
:10088600FDE434FFFCE41202A6D003D002D001D06E
:10089600001200FBD003D002D001D00012000A8F54
:1008A6002E8E2D8D2C8C2B74FF252AF52A74FF3560
:1008B60029F5290530E5307002052F020830AB28EE
:1008C600AA29A92A12053BFFC394304013EFD394FB
:1008D6003A500D7401252AF52AE43529F52980DEDA
:1008E6007401252AF52AE43529F52974FFF52FF533
:1008F60030AB28AA29A92A12053BFFC3943050031E
:1009060002098AEFD39439507BAB2EAA2DA92CA8C5
:100916002BC000C001C002C003AC2FAD30EC1202E8
:10092600A68F388E378D368C357F007E007D207CF5
:1009360041120E1EC004C005C006C007AB28AA2976
:10094600A92A12053B24D0FDE434FFFCE41202A6DA
:10095600D003D002D001D0001200FBD003D002D0C9
:1009660001D00012000A8F2E8E2D8D2C8C2B740137
:10097600252AF52AE43529F529E5301530700215C2
:0C0986002F0208F7AF2EAE2DAD2CAC2BCD
:010992002242
:1000030002034BE86480F8E933E83360110460F0DD
:10001300ED33EC337009E8FCE9FDEAFEEBFF220463
:1000230060DED3EB9FEA9EE99DE8C2E78CF0C2F75E
:1000330095F0400CE8CCF8E9CDF9EACEFAEBCFFB2A
:1000430012031685D0F05804700320D5B3E804706A
:10005300075002B2D502035592D5EC0460F7E4CC05
:10006300C0E0C398F8603B94186008400DD0E0FBF3
:1000730002032DE4FBFAC9FC8028E830E406E4C956
:10008300FBE4CAFCE830E305E4C9CACBFCE8540747
:100093006010F8C3E913F9EA13FAEB13FBEC13FC52
:1000A300D8F130F52FC3E49CFCEF9BFFEE9AFEEDF5
:1000B30099FDD0E0FBEF4E4D4C701222DB0302039F
:1000C30052EC2CFCEF33FFEE33FEED33FDED30E766
:1000D300EB02032DEF2BFFEE3AFEED39FDD0E0FBF3
:1000E30050130BBB0003020355ED13FDEE13FEEF9C
:0800F30013FFEC13FC02032DC6
:1000FB00EC4D6011E8497017ED33EC3304600DE4FF
:10010B00FCFFFEFD22E933E8330470F802034B12C7
:10011B00031658046009E4CC2481500628500902C8
:10012B000355284003020352C0E0EB4A7044B980E8
:10013B0006D0E0FB020341EF4E701CBD8008EBFFC5
:10014B00EAFEE9FD80EBE98DF0A4FEE5F00201E4A7
:10015B00E9CDF9EAFEEBFFEF89F0A4FCE5F0CE89DF
:10016B00F0A42EFFE435F0CD89F0A42DFEE435F09C
:10017B008067EF4E7005BD80D780C3EF8BF0A4ACCA
:10018B00F0EE8BF0A42CFCE435F0F8EF8AF0A42C05
:10019B00E5F038FCE433CB8DF0A42CFCE5F03BF818
:1001AB00EE8AF0A42CFCE5F038F8E433CF89F0A408
:1001BB002CFCE5F038CF3400CE89F0A42FFFE5F00E
:1001CB003EFEE433C98DF0A42EFEE5F039CD8AF066
:1001DB00A42FFFE5F03EFEE43DFD33D0E0FB5007DE
:1001EB000BBB000F020355EC2CFCEF33FFEE33FE81
:0601FB00ED33FD02032DAF
:10020100020355EC5D046005E85904700302034BD9
:10021100120316580460F6EC4860F2EC7004FDFE1F
:10022100FF22C860DB2481C85009C39860025006D0
:100231000203529850CAF582E9294B4A7005AB82F4
:1002410002034175F0007C1A7880C3EF9BEE9AEDB2
:1002510099400DC3EF9BFFEE9AFEED99FDE842F048
:10026100DC23ACF0D0E0FFD0E0FED0E0FDAB82209B
:10027100E7101BEB60BAEC2CFCEF33FFEE33FEED25
:1002810033FD02032DE803F830E705C0F075F000F7
:10029100EF2FFFEE33FEED33FD40B830E7C280AA09
:1002A10075F020800E75F010800575F0087D007ED8
:1002B100007F003392D530D5031205ACEC334010EA
:1002C100EF33FFEE33FEED33FDEC33FCD5F0ED22E1
:0E02D100E5F0247EA2D513CC92E7CDCEFF221D
:1002DF00EDD2E7CD33EC3392D524814006E4FFFE17
:1002EF00FDFC22FCE4CFCECDCC24E0501174FF8076
:1002FF00EDC3CC13CCCD13CDCE13CECF13CF047013
:07030F00F030D5DE0205AC61
:100E1E008F348E338D328C31E4FFFE7D807C3FAB80
:100E2E0034AA33A932A83112037A7009AF34AE3323
:100E3E00AD32AC3122AF34AE33AD32AC31120360D1
:100E4E00FBAF38AE37AD36AC35120360FFBF0108CD
:100E5E00E4FFFE7D807C3F22EF64046022EB64049D
:100E6E00601DBB0127E4FFFEFDFCAB38AA37A93697
:100E7E00A83512037A60084006E4FFFEFDFC2274DA
:100E8E00FFF538F537F536F535020F2CE4F539F563
:100E9E003AFFFEFDFCAB34AA33A932A83112037A15
:100EAE00504BAF38AE37AD36AC351202DF8E398FC0
:100EBE003AAC39AD3AEC1202A6C8ECC8C9EDC9CAB3
:100ECE00EECACBEFCBAF38AE37AD36AC351200062F
:100EDE00E4FBFAF9F812037A70A5AF34AE33AD32F3
:100EEE00AC311203E78F348E338D328C31AF34AE8A
:100EFE0033AD32AC31120D1DAB38AA37A936A83539
:100F0E001200FB1210648F388E378D368C35E53A11
:100F1E0030E00B1203E78F388E378D368C35AF38B5
:070F2E00AE37AD36AC3522F1
:10031600E9D2E7C933E833F892D5EDD2E7CD33EC2D
:0703260033FC5002B2D522A6
:10032D00EC30E7100FBF000C0EBE00080DBD000431
:10033D000BEB6014A2D5EB13FCED92E7FD2274FFDD
:10034D00FCFDFEFF22E480F8A2D574FF13FC7D8036
:03035D00E480EF4A
:10036000ED33EC33601004700FED547F70057402B0
:0A03700092E0227404220422E42229
:10037A0074F8CC6480CCC86480C8F582046043C336
:10038A00EB9FF5F0EA9E42F0E99D42F0E89C45F0C9
:10039A0060305018E5825FFFE582F42B5582FB50EE
:1003AA00210ABA001D09B90019088016E5825BFB0B
:1003BA00E582F42F5582FF50090EBE00050DBD00DF
:1003CA00010CC3EB9FF5F0EA9E42F0E99D42F0E88A
:0D03DA009C45F06007CC4820E701B3EC2201
:1003E700ED33EC33600A047003BD8004ECB2E7FC24
:0103F70022E3
:10102C0033DA929E35B16011377FE5FE3921848920
:10103C003AAEC3FF3C1D955B3D6358473E75FDF0D2
:10104C003F3172183F800000C2D502035502034B9A
:10105C00BD80FA50F3020352ED33EC330460F17BA4
:10106C003B7AAA79B8783F1200FBED33EC3392D57A
:10107C00247B5011A2D570DB500BED44802404501E
:10108C0004A2D580CEEFFBEEFAEDF9ECF81202DFFC
:10109C00EFF582F404FC1202AB12000AC08290102D
:1010AC002C7409120407ED33CC33D0F092D525F013
:0A10BC00A2D57001C313CC13FD226E
:100CE9003E9248DA3ECCCCCD3F2AAAAB4000000068
:100CF9003F8000003F9837F03FB504F33FD744FCED
:100D09003E3172173EB172173F0515913EDE5BD930
:100D1900D2008002C200EDD2E7F8CD33EC33047083
:100D29000BBD800592D502035502034B40FBD3143A
:100D390060F2F5F07C3FEE7A00C39496C8948B403C
:100D4900230AC89469C8941A401A0AC89468C894AE
:100D59001F40110AC8945AC89425400805F07A0022
:100D6900CDC2E7CDC0F08C3B8D3C8E3D8F3EEA2352
:100D790023C0E024F9F582E4340CF5831205CA1284
:100D8900000AECC0E0EDC0E0EEC0E0EFC0E0120503
:100D9900BAA83BA93CAA3DAB3E120006D0E0FBD065
:100DA900E0FAD0E0F9D0E0B2E7F81202048C3B8D0A
:100DB9003C8E3D8F3E900CE974031203F8A83BA9C1
:100DC9003CAA3DAB3E1200FBD0E0600F2405F58242
:100DD900E4340DF5831205CA12000A8C3B8D3C8E52
:100DE9003D8F3ED0E0C3947FFDE49400FC1202A63F
:100DF9007B187A727931783F1200FBA83BA93CAA8B
:100E09003DAB3E12000A30000B7BD97A5B79DE7864
:050E19003E1200FB2267
:1003F800C0E0EFFBEEFAEDF9ECF81200FBD0E0F507
:10040800F0EFFBEEFAEDF9ECF81205BAA3A3A3A3FB
:10041800E8C0E0E9C0E0EAC0E0EBC0E0C0F01200EC
:10042800FB1205CAA3A3A3A312000AD0F0D0E0FBD5
:0D043800D0E0FAD0E0F9D0E0F8D5F0D42201
:1010D200021233E493A3F8E493A34003F68001F2EF
:1010E20008DFF48029E493A3F85407240CC8C3331F
:1010F200C4540F4420C8834004F456800146F6DFEE
:10110200E4800B01020408102040809011C5E47EA7
:10111200019360BCA3FF543F30E509541FFEE493E2
:10112200A360010ECF54C025E060A840B8E493A3A9
:10113200FAE493A3F8E493A3C8C582C8CAC583CAD4
:10114200F0A3C8C582C8CAC583CADFE9DEE780BE8C
:0111F00000FE
:10044500E709F608DFFA8046E709F208DFFA803E99
:1004550088828C83E709F0A3DFFA8032E309F60886
:10046500DFFA8078E309F208DFFA807088828C83EE
:10047500E309F0A3DFFA806489828A83E0A3F608A2
:10048500DFFA805889828A83E0A3F208DFFA804C7C
:1004950080D280FA80C680D4806980F28033801053
:1004A50080A680EA809A80A880DA80E280CA8033BC
:1004B50089828A83ECFAE493A3C8C582C8CCC58334
:1004C500CCF0A3C8C582C8CCC583CCDFE9DEE78004
:1004D5000D89828A83E493A3F608DFF9ECFAA9F083
:1004E500EDFB2289828A83ECFAE0A3C8C582C8CCD9
:1004F500C583CCF0A3C8C582C8CCC583CCDFEADEF2
:10050500E880DB89828A83E493A3F208DFF980CC53
:1005150088F0EF60010E4E60C388F0ED2402B4044C
:100525000050B9F582EB2402B4040050AF232345F3
:060535008223900495737F
:10053B00BB010689828A83E0225002E722BBFE02BE
:09054B00E32289828A83E49322F1
:10055400F8BB010DE58229F582E5833AF583E8F0DD
:10056400225006E92582C8F622BBFE05E92582C889
:02057400F22271
:10057600C2D5EC30E709B2D5E4C39DFDE49CFCEEA0
:1005860030E715B2D5E4C39FFFE49EFE120607C30B
:10059600E49DFDE49CFC800312060730D507C3E406
:0605A6009FFFE49EFE220F
:10115200C2D5E830E70FB2D5E4C39BFBE49AFAE4C8
:1011620099F9E498F8EC30E717B2D5121188120613
:1011720098E4C39BFBE49AFAE499F9E498F88003B3
:1011820012069830D50DE4C39FFFE49EFEE49DFD58
:04119200E49CFC22BB
:0E05AC00C3E49FFFE49EFEE49DFDE49CFC2260
:1005BA00E493FC740193FD740293FE740393FF2287
:1005CA00E493F8740193F9740293FA740393FB2287
:1005DA00D083D082F8E4937012740193700DA3A3B0
:1005EA0093F8740193F5828883E473740293B5F0E7
:0D05FA00067403936860E9A3A3A3A380D84F
:10060700BC000BBE0029EF8DF084FFADF022E4CCD7
:10061700F875F008EF2FFFEE33FEEC33FCEE9DECA0
:10062700984005FCEE9DFE0FD5F0E9E4CEFD22EDE6
:10063700F8F5F0EE8420D21CFEADF075F008EF2F30
:10064700FFED33FD4007985006D5F0F222C398FD21
:050657000FD5F0EA22BE
:10065C0075F008758200EF2FFFEE33FECD33CDCC55
:10066C0033CCC58233C5829BED9AEC99E5829840D8
:10067C000CF582EE9BFEED9AFDEC99FC0FD5F0D6B5
:10068C00E4CEFBE4CDFAE4CCF9A88222B800C1B9DF
:10069C000059BA002DEC8BF084CFCECDFCE5F0CB1D
:1006AC00F97818EF2FFFEE33FEED33FDEC33FCEB56
:1006BC0033FB10D703994004EB99FB0FD8E5E4F911
:1006CC00FA227818EF2FFFEE33FEED33FDEC33FCFE
:1006DC00C933C910D7059BE99A4007EC9BFCE99AF2
:1006EC00F90FD8E0E4C9FAE4CCFB2275F010EF2F37
:1006FC00FFEE33FEED33FDCC33CCC833C810D70737
:10070C009BEC9AE899400AED9BFDEC9AFCE899F871
:0E071C000FD5F0DAE4CDFBE4CCFAE4C8F92204
:00000001FF
